:1070000055C000006EC000006CC000006AC00000E7
:1070100068C0000066C0000064C0000062C00000DC
:1070200060C000005EC00000E3C400005AC0000061
:1070300058C0000056C0000054C0000052C00000FC
:1070400050C00000DCC000004CC000004AC000007E
:1070500048C0000046C0000044C0000042C000001C
:1070600040C000003EC000003CC000003AC000002C
:1070700038C0000036C0000034C0000032C000003C
:1070800030C000002EC000002CC000002AC000004C
:1070900028C0000026C0000024C0000022C000005C
:1070A00020C000001EC000001CC0000011241FBE34
:1070B000CFEFDAE0DEBFCDBF11E0A0E0B1E0E6E067
:1070C000FFE702C005900D92A83AB107D9F711E089
:1070D000A8EAB1E001C01D92AE3BB107E1F785D34C
:1070E00010C78ECF84E08093E9000DC08091E80046
:1070F0008B778093E80003C08EB3882359F080918A
:10710000E80082FFF9CF8091E80085FFEFCF809102
:10711000F100089580E0089593E09093E900909144
:10712000E80095FD0DC09091E8009E779093E800EF
:1071300003C09EB3992369F09091E80090FFF9CFC6
:107140008093F1005D9884E690E09093A90180938C
:10715000A8010895F89410926F0010928100109287
:1071600085001092840081E085BF15BE47985D9A26
:10717000289A0C94000008958091B2019091B30177
:1071800001969093B3018093B201292F97FF03C01A
:107190003EEF391B232F220F281710F4479808952C
:1071A000479A089584B7877F84BF88E10FB6F89423
:1071B00080936000109260000FBE90E880E00FB6F0
:1071C000F89490936100809361000FBE81E085BFC9
:1071D00082E085BF3F9A209A559AE1E6F0E09083DD
:1071E000108247985D9A289A109289009AEF90939E
:1071F000880080936F0083E080938100E1C31F9239
:107200000F920FB60F9211242F938F939F93EF93AA
:10721000FF9310928500109284008091A8019091B4
:10722000A901009741F001979093A9018093A801CB
:10723000009709F45D9A8091AA019091AB010097A3
:1072400041F001979093AB018093AA01009709F454
:10725000289AE0E0F0E0859194912FEF8F3F92071C
:1072600049F08091AC019091AD0101969093AD01F0
:107270008093AC01FF91EF919F918F912F910F908F
:107280000FBE0F901F90189582E061EC42E02BD367
:1072900083E061E842E127D384E060E842E123C370
:1072A0008091B601982F9F77913249F59091B7015F
:1072B0009032A1F0913219F5813A09F58091E800F8
:1072C000877F8093E8008DE091E067E070E03FD435
:1072D0008091E8008B778093E8000895813279F4FB
:1072E0008091E800877F8093E8008DE091E067E07F
:1072F00070E08ED48091E8008E778093E800089546
:107300004F925F926F927F928F929F92AF92BF92B5
:10731000CF92DF92EF92FF920F931F93CF93DF9361
:1073200084E08093E9008091E80082FF4DC22898B4
:1073300084E690E09093AB018093AA01D3DE182FEE
:10734000853481F48CEA9DE09093AD018093AC018B
:1073500007B600FCFDCFF999FECF81E1809357007D
:10736000E89503C0843519F4BDDE8DE003C28C348A
:10737000E1F38035D1F3843721F484E4CDDE80E07D
:10738000F9C1813611F489E5F5C1813401F5AADE30
:10739000C82FA8DE282F30E0220F331F442737FDE7
:1073A0004095542F7C2F770F60E0CB01AA2797FDE3
:1073B000A095BA2F282B392B4A2B5B2B2093AE019B
:1073C0003093AF014093B0015093B101CECF8037DD
:1073D00011F483E5CFC1833549F4C0E0D1E0899150
:1073E0009BDE41E0C730D407D1F7C5C1863521F413
:1073F00081E392DE80E3BEC1833731F487E88CDE1F
:1074000085E98ADE8EE1B6C18536F9F480E090E048
:10741000DC0133E025E0FC0130935700E89507B626
:1074200000FCFDCF20935700E89507B600FCFDCF88
:1074300080589F4FAF4FBF4F8030E0E79E07E0E09E
:10744000AE07E0E0BE0739F790CF823739F4E1E0CC
:10745000F0E089E08093570084918CC1863439F440
:10746000E0E0F0E089E080935700849183C18E349E
:1074700039F4E3E0F0E089E08093570084917AC129
:10748000813539F4E2E0F0E089E08093570084919F
:1074900071C1823631F489E53FDE80E03DDE80E86F
:1074A00069C1823419F0873609F0DAC01092AD0153
:1074B0001092AC0117DEE82E15DEC82F13DED82E91
:1074C0008554823008F055C13E2D20E0D0E0C22B1B
:1074D000D32B10926F00173609F044C081E18093DE
:1074E0005700E895CC24BB24B39438C0E090AE019B
:1074F000F090AF010091B0011091B101FD2DF63473
:10750000B9F4EC2DF0E0EE29FF29849105DECC20C2
:1075100069F0D801C7010296A11DB11D8093AE018B
:107520009093AF01A093B001B093B101CB2415C0EB
:10753000D801C701B695A79597958795CCD4ECDD72
:10754000D801C7010296A11DB11D8093AE01909391
:10755000AF01A093B001B093B1012197209709F03A
:10756000C5CF7AC04090AE015090AF016090B0019D
:107570007090B1014D2D463409F05AC083E0F201FC
:1075800080935700E89507B600FCFDCF51C0FD2D54
:10759000F63449F5CC2019F1E090AE01F090AF013E
:1075A0000091B0011091B1019DDD982E88242B2D02
:1075B00030E028293929F7010901A0925700E89500
:1075C0001124D801C7010296A11DB11D8093AE01FF
:1075D0009093AF01A093B001B093B10102C082DDDE
:1075E000B82ECA2423C0E090AE01F090AF01009104
:1075F000B0011091B10116950795F794E79472DDEB
:10760000682FC70170D48091AE019091AF01A09115
:10761000B001B091B1010296A11DB11D8093AE01E0
:107620009093AF01A093B001B093B101219704C032
:10763000BB24CC24AA24A394209709F0A8CFFD2D25
:10764000F63441F485E0F20180935700E89507B6DF
:1076500000FCFDCF8DE060DD82E080936F008BC089
:10766000833471F4C091AE01D091AF013BDD90E065
:1076700021E0FE010C0120935700E895112475CEFE
:107680008336A9F4E090AE01F090AF010091B00113
:107690001091B10127DDF701E16090E021E00C01DC
:1076A00020935700E8951124D801C70134C08D36C6
:1076B00061F4E091AE01F091AF0185E08093570055
:1076C000E89507B600FCFDCF50CE823551F4E0912D
:1076D000AE01F091AF01C591D4918D2F1DDD8C2F9E
:1076E00049C0843421F5E090AE01F090AF010091E3
:1076F000B0011091B10116950795F794E794F2DC6B
:10770000682FC701F0D38091AE019091AF01A09195
:10771000B001B091B1010296A11DB11D8093AE01DF
:107720009093AF01A093B001B093B1011ECE843607
:10773000F1F4E090AE01F090AF010091B001109132
:10774000B101D801C701B695A79597958795C3D381
:10775000E3DCD801C7010296A11DB11D8093AE01E3
:107760009093AF01A093B001B093B10104C08B31ED
:1077700011F08FE3D1DC83E08093E9009091E80081
:107780008091E8008E778093E80095FF04C010C0D8
:107790008EB38823C9F08091E80080FFF9CF8091F3
:1077A000E8008E778093E80003C08EB3882361F0F1
:1077B0008091E80080FFF9CF84E08093E900809118
:1077C000E8008B778093E800DF91CF911F910F91B4
:1077D000FF90EF90DF90CF90BF90AF909F908F90F1
:1077E0007F906F905F904F900895209100083091A6
:1077F0000108109201081092000844B714BE88E1F5
:107800000FB6F89480936000109260000FBE842F32
:1078100090E0FC01E270F07041FD15C0413019F4B8
:10782000859194910BC0483071F480910901909139
:107830000A012817390739F0859194912FEF8F3F6E
:10784000920709F087DCAEDC78941092AD011092BB
:10785000AC010DC055DD2DD38091AC019091AD01EF
:107860002FE0813A920710F01092140185DC80918C
:107870001401882379F78091E00081608093E00013
:1078800069DC80E090E00895923029F0933041F077
:10789000913061F410C02EE330E087E291E01EC029
:1078A000882371F0813089F08230A1F020E030E04F
:1078B00080E090E013C022E130E085E191E00EC06D
:1078C00024E030E085E691E009C022E230E089E67C
:1078D00091E004C028E130E08DE891E0FA01918365
:1078E0008083C90108958093E900EBEEF0E0808188
:1078F00081608083EDEEF0E010826093EC004083C5
:107900008091EE00881F8827881F08958091B60116
:1079100087FF11C003C08EB38823B1F08091E800C7
:1079200082FFF9CF8091E8008B778093E80008957B
:107930008EB3882349F08091E80080FFF9CF8091D1
:10794000E8008E778093E80008950F931F93CF93FC
:10795000DF9341D048D0C8EDD0E088818F7788830D
:1079600088818068888388818F7D888319BC1EBA4E
:107970001092B40100EE10E0F80180818B7F8083CB
:1079800088818160888380E060E042E0ACDFE1EEE6
:10799000F0E080818E7F8083E2EEF0E08081816084
:1079A0008083808188608083F80180818E7F8083DE
:1079B000888180618883DF91CF911F910F91089515
:1079C000E7EDF0E08081816080838AE482BF81E01E
:1079D0008093B501BACFE8EDF0E080818E7F80839F
:1079E0001092E20008951092DA001092E1000895DA
:1079F0001F920F920FB60F9211242F933F934F9324
:107A00005F936F937F938F939F93AF93BF93EF9306
:107A1000FF938091DA0080FF1AC08091D80080FF28
:107A200016C08091DA008E7F8093DA008091D900B1
:107A300080FF0AC019BC82E089BD09B400FEFDCFF9
:107A400081E08EBB35D203C019BC1EBA31D2809101
:107A5000E10080FF17C08091E20080FF13C0809199
:107A6000E2008E7F8093E2008091E200806180934B
:107A7000E2008091D80080628093D80019BC85E034
:107A80008EBB16D28091E10084FF2BC08091E20072
:107A900084FF27C019BC82E089BD09B400FEFDCF78
:107AA0008091D8008F7D8093D8008091E1008F7EF7
:107AB0008093E1008091E2008F7E8093E2008091CC
:107AC000E20081608093E2008091B401882321F478
:107AD0008091E30087FF02C084E001C081E08EBB9B
:107AE000E7D18091E10083FF21C08091E20083FF14
:107AF0001DC08091E100877F8093E10082E08EBB12
:107B00001092B4018091E1008E7F8093E10080911A
:107B1000E2008E7F8093E2008091E200806180939A
:107B2000E20080E060E042E0DEDEC2D1FF91EF9152
:107B3000BF91AF919F918F917F916F915F914F9185
:107B40003F912F910F900FBE0F901F901895482FC7
:107B5000592FFA018091BC019091BD0186179707BA
:107B600018F4BC0140E03BC061157105D9F7809164
:107B7000E8008E778093E800F5CF8EB3882309F470
:107B800043C08530E9F18091E80083FD3BC08091DE
:107B9000E80082FD2FC08091E80080FF20C0909116
:107BA000F3008091F200392F20E090E0822B932B9C
:107BB00006C041914093F1006150704001966115FB
:107BC000710519F088309105A0F341E088309105E6
:107BD00009F040E08091E8008E778093E80061151D
:107BE000710559F6442349F605C08EB3882361F028
:107BF000853061F08091E80082FFF7CF80E0089542
:107C000083E0089581E0089582E0089583E0089577
:107C10006115710551F524C04EB34423C9F14530B7
:107C200099F14091E80043FD31C04091E80042FFE6
:107C3000F3CFE82FF92F07C08091F1008193CF0196
:107C40006150704069F0CF015091F3004091F20013
:107C5000352F20E050E0422B532B4115510561F7A1
:107C60004091E8004B774093E80061157105A1F65B
:107C700005C08EB3882361F0853061F08091E80003
:107C800080FFF7CF80E0089583E0089581E00895B4
:107C900082E0089583E008950F931F93DF93CF93BD
:107CA00000D0CDB7DEB7E6EBF1E08091F100819333
:107CB00081E0EE3BF807C9F7F3DA8091E80083FF33
:107CC000E2C08091B6019091B701953009F46BC084
:107CD000963040F4913061F1913070F0933009F0BA
:107CE000D2C026C0983009F4A1C0993009F4B0C0C0
:107CF000963009F0C8C07AC0803809F4C4C0823810
:107D000009F0C1C08091BA0187708093E900909119
:107D1000EB001092E9008091E800877F8093E800F3
:107D200081E095FF80E08093F1001092F10089C01E
:107D3000882319F0823009F0A6C08F71823009F0D3
:107D4000A2C08091B801882341F52091BA01277023
:107D500009F499C02093E9008091EB0080FF1DC0D9
:107D60008091B701833021F48091EB00806213C0D1
:107D70008091EB0080618093EB0081E090E002C095
:107D8000880F991F2A95E2F78093EA001092EA0083
:107D90008091EB0088608093EB001092E900809165
:107DA000E800877F51C0882309F06DC01091B801A9
:107DB0001F770FB7F8948091E800877F8093E800E1
:107DC000A5DD8091E80080FFFCCF8091E300807802
:107DD000812B8093E30080688093E300112311F0EE
:107DE00083E001C082E08EBB0FBF4DC0805882305F
:107DF00008F049C08091B8019091B9016091BA0131
:107E0000AE014F5F5F4F40DDBC01009709F43BC0FE
:107E10008091E800877F8093E80089819A8197DECE
:107E20008091E8008B778093E8002DC0803859F569
:107E30008091E800877F8093E8008091B40180936F
:107E4000F1008091E8008E778093E8005FDD1BC031
:107E50008823C9F49091B8019230A8F48091E80089
:107E6000877F8093E8009093B40150DD8091B40146
:107E7000882321F48091E30087FF02C084E001C0E1
:107E800081E08EBB01DA8091E80083FF0AC0809117
:107E9000EB0080628093EB008091E800877F809305
:107EA000E8000F900F90CF91DF911F910F910895EF
:107EB0000895CF938EB3882361F0C091E900C77015
:107EC0001092E9008091E80083FF01C0E5DEC093D5
:107ED000E900CF910895F999FECF92BD81BDF89A3E
:107EE000992780B50895262FF999FECF1FBA92BD24
:107EF00081BD20BD0FB6F894FA9AF99A0FBE01968B
:067F00000895F894FFCF84
:107F06004341544552494E4100777700080000002E
:107F1600000000080112011001020000084123368A
:107F26000001000201000109023E00020100803248
:107F360009040000010202010005240010010424C6
:107F460002040524060001070582030800FF090450
:107F56000100020A000000070504021000010705DF
:107F66008302100001040309042203410072006425
:107F760000750069006E006F0020004C0065006F00
:107F8600006E006100720064006F0000001803417B
:107F96000072006400750069006E006F0020004CDE
:087FA600004C00430000000044
:040000030000700089
:00000001FF
